{
  "jsonrpc": "2.0",
  "result": {
    "author": "0x5a0b54d5dc17e0aadc383d2db43b0a0d3e029c4c",
    "difficulty": "0x6c925d2be1daa",
    "extraData": "0x5050594520737061726b706f6f6c2d6574682d636e2d687a32",
    "gasLimit": "0x7a309c",
    "gasUsed": "0x176aba",
    "hash": "0xa143072d105d58469b92b72bc68e32eb44136a7a914a9cfd545bb187212b9303",
    "logsBloom": "0x000000000000000000008408000000010000000000100040200020000c0000000000000000000544001040001000000100000000080080000000401400002000000004002001000000000048100000000000000000048000009008000802010000000220002000000000000000800001000000002000024002a2001000000000000200000000000200000410000000000400410000080000002040020200000000000000000000000000008000001000000000000000002000000000000800000080014210900000000000000200000000000001000000000000000000001000400020000010000000000200000c200080000000000000000000000000000000",
    "miner": "0x5a0b54d5dc17e0aadc383d2db43b0a0d3e029c4c",
    "mixHash": "0x869b914d3ef554410cc75573e6cad1ddd2a4ac5e8d97dc490805efe9065675ea",
    "nonce": "0x5b4275a806503fac",
    "number": "0x757ec2",
    "parentHash": "0x566e0539f12c356cf53ba320000704114f849f4b9d7c040b4fa1cba605f04fe6",
    "receiptsRoot": "0x9a337b4c1c6901104552b3ad3d05cfa0f90d3b04bfac843d01dfff9a30d20caa",
    "sealFields": [
      "0xa0869b914d3ef554410cc75573e6cad1ddd2a4ac5e8d97dc490805efe9065675ea",
      "0x885b4275a806503fac"
    ],
    "sha3Uncles": "0x80871f2c6e9bbb1754fc3da6c290820e7f42308d7c60177ee15885e6a51f2c09",
    "size": "0x1c4c",
    "stateRoot": "0x5cf071ab13f56b43ecc70b4d0c06a9fddea8b77ce42be3815bc2e93ecee23a5c",
    "timestamp": "0x5cceb0b2",
    "totalDifficulty": "0x2226e4ee6e3b7cc6a68",
    "transactions": [
      {
        "blockHash": "0xa143072d105d58469b92b72bc68e32eb44136a7a914a9cfd545bb187212b9303",
        "blockNumber": "0x757ec2",
        "chainId": "0x1",
        "condition": null,
        "creates": null,
        "from": "0x8b3d23ca87c4becf622f7db7272df59d66732f5a",
        "gas": "0x5208",
        "gasPrice": "0xba43b7400",
        "hash": "0x63c063b9207a1e2f035f06345e6b9a3b0d964685ad677215614df695679f7ea8",
        "input": "0x",
        "nonce": "0xae",
        "publicKey": "0x0391fc90b6a00e43acb52c6b443552eb02d2e88b4e86de41a4c82fc1ced8c9200e715f3f8be3ef60451d07b5c8c3712bf46bfa62d004c265d41a478e46ecaf47",
        "r": "0x1e3e2599580b3e96946999df9f5c2d4012d01c50bc13243c65659dc2b05a6aef",
        "raw": "0xf86d81ae850ba43b740082520894447b4877fc402e6ebb9796e39dbbaa1747892887880133a4853c554c008026a01e3e2599580b3e96946999df9f5c2d4012d01c50bc13243c65659dc2b05a6aefa0318b992f44f0dd4f8c16daabe574fe5914466bf175ca564652f7deecac39dadd",
        "s": "0x318b992f44f0dd4f8c16daabe574fe5914466bf175ca564652f7deecac39dadd",
        "standardV": "0x1",
        "to": "0x447b4877fc402e6ebb9796e39dbbaa1747892887",
        "transactionIndex": "0x0",
        "v": "0x26",
        "value": "0x133a4853c554c00"
      },
      {
        "blockHash": "0xa143072d105d58469b92b72bc68e32eb44136a7a914a9cfd545bb187212b9303",
        "blockNumber": "0x757ec2",
        "chainId": "0x1",
        "condition": null,
        "creates": null,
        "from": "0xf48fb67d69aa43b00fbc322e78d1bf9b29c7ff40",
        "gas": "0x6270",
        "gasPrice": "0xaa6ad0c82",
        "hash": "0x2c44ce4868e7d375b7cdb4517aa7197fd0050175e624766130fbddd8f12eafc4",
        "input": "0x",
        "nonce": "0x1227",
        "publicKey": "0x3ad9235a719d5e94b6fffe6bd7cefcbee4eeb1885158c1924e7a6f9dd4e319263b48a9200383809f62f921973edb07f741fc73f871f6b62721d153780f99eaa6",
        "r": "0x6130c05b5360bf32e4262c6520a5809708c32fc18a2c3df6d0caac4b0750c045",
        "raw": "0xf86e821227850aa6ad0c828262709470ae81731b72d55d6afd43f5e74bb82fa5286591884210b1871d3f40008026a06130c05b5360bf32e4262c6520a5809708c32fc18a2c3df6d0caac4b0750c045a002e0b704cdfd7a0c9e5a8c8d1986aee1ed200c7391018c0ab4830e021a0fbadf",
        "s": "0x2e0b704cdfd7a0c9e5a8c8d1986aee1ed200c7391018c0ab4830e021a0fbadf",
        "standardV": "0x1",
        "to": "0x70ae81731b72d55d6afd43f5e74bb82fa5286591",
        "transactionIndex": "0x1",
        "v": "0x26",
        "value": "0x4210b1871d3f4000"
      },
      {
        "blockHash": "0xa143072d105d58469b92b72bc68e32eb44136a7a914a9cfd545bb187212b9303",
        "blockNumber": "0x757ec2",
        "chainId": "0x1",
        "condition": null,
        "creates": null,
        "from": "0xd551234ae421e3bcba99a0da6d736074f22192ff",
        "gas": "0x19518",
        "gasPrice": "0x9502f9000",
        "hash": "0x311284b94746536b444298093967fdadf7456e54bc278b1fd10c1031c776928f",
        "input": "0xa9059cbb0000000000000000000000000d74ff36116841a86508af82bc36516de28a79890000000000000000000000000000000000000000000000a2a15d09519be00000",
        "nonce": "0x15f46c",
        "publicKey": "0x68de0c525c958735b1317e7b17b6e8cf193e99c9eaa56f8b6ba2a9d49e362c7025fec545c5b6ea01d0ffad7ceda01f0348fdfb3f456f13f4311b951337e3de12",
        "r": "0x5f9ff8c1ca53841e773086964d16643d01e950c90cbe192d99a10fafcbc60920",
        "raw": "0xf8ad8315f46c8509502f900083019518940d8775f648430679a709e98d2b0cb6250d2887ef80b844a9059cbb0000000000000000000000000d74ff36116841a86508af82bc36516de28a79890000000000000000000000000000000000000000000000a2a15d09519be0000025a05f9ff8c1ca53841e773086964d16643d01e950c90cbe192d99a10fafcbc60920a01caea3260ec25a10b8c9697925249118b99fabf9ac3c3bc6c0d225f44b6e1322",
        "s": "0x1caea3260ec25a10b8c9697925249118b99fabf9ac3c3bc6c0d225f44b6e1322",
        "standardV": "0x0",
        "to": "0x0d8775f648430679a709e98d2b0cb6250d2887ef",
        "transactionIndex": "0x2",
        "v": "0x25",
        "value": "0x0"
      },
      {
        "blockHash": "0xa143072d105d58469b92b72bc68e32eb44136a7a914a9cfd545bb187212b9303",
        "blockNumber": "0x757ec2",
        "chainId": "0x1",
        "condition": null,
        "creates": null,
        "from": "0x5196d7414028d5e6bf8e17dd84f59991f95661c6",
        "gas": "0x15f90",
        "gasPrice": "0x430e23400",
        "hash": "0xb8f00679fbc25f90d51238db458fc0b0224ced92912e8f45b91fa01b68ade3ab",
        "input": "0xa9059cbb000000000000000000000000f00e16cc74a6f7daf990fb63999768e279509b7b000000000000000000000000000000000000000000000000000000c5234dbdac",
        "nonce": "0x0",
        "publicKey": "0x299b4edc2dc312d8bc1c03590f471c31b7d78d2136c7f88cfd797cd3881d181cffe65a9af64b04efc9f12e61a83eaee5a872f984782bca47f6c29fb0f794964e",
        "r": "0x1af1b4c4da5ed2443bd051c41e991fb38bee15723a42394a01aedfacb017bab5",
        "raw": "0xf8aa80850430e2340083015f909447f37866c3e5ce9e1932f3cb76c359fbf66bb37380b844a9059cbb000000000000000000000000f00e16cc74a6f7daf990fb63999768e279509b7b000000000000000000000000000000000000000000000000000000c5234dbdac25a01af1b4c4da5ed2443bd051c41e991fb38bee15723a42394a01aedfacb017bab5a0424426761f5b6e848ba36d87a08035192efa3e24eb7f0fb3e2adecdbeb07895c",
        "s": "0x424426761f5b6e848ba36d87a08035192efa3e24eb7f0fb3e2adecdbeb07895c",
        "standardV": "0x0",
        "to": "0x47f37866c3e5ce9e1932f3cb76c359fbf66bb373",
        "transactionIndex": "0x3",
        "v": "0x25",
        "value": "0x0"
      },
      {
        "blockHash": "0xa143072d105d58469b92b72bc68e32eb44136a7a914a9cfd545bb187212b9303",
        "blockNumber": "0x757ec2",
        "chainId": "0x1",
        "condition": null,
        "creates": null,
        "from": "0xccccccc3b1ac9d2d02ce052917ee92618e9738b9",
        "gas": "0x4c4b40",
        "gasPrice": "0x253625930",
        "hash": "0xf73e522a3ece03184a86b55f9626aeaefbd811cd226eec4302ee48e0874a3bae",
        "input": "0x8f0b1bb4c7ad3f151d2bc20fe2e8647116649d0d942d5f01e7ec40e8f171fcc83ad253928129767c03fbaa6c2fac8ef35cd19d58d76409ff639b1ec0f6338522a4c3528a",
        "nonce": "0x5551",
        "publicKey": "0x51f2aa1d5f9608f5c545d0eac3918461c9a5a2f41e5f4595fda616256a2b52367ad8cccaf09ee0f4d9403eb505c26c8c7c52498959a0254f4fa64c4b0b9782e7",
        "r": "0xd1e31dd86140caf7dab6791a0d1bd0c2291ca4efee50801697fb3f47e3d4f821",
        "raw": "0xf8ac825551850253625930834c4b4094ddddddd1fd4e3708869c00cabe6b0b9d15181bb980b8448f0b1bb4c7ad3f151d2bc20fe2e8647116649d0d942d5f01e7ec40e8f171fcc83ad253928129767c03fbaa6c2fac8ef35cd19d58d76409ff639b1ec0f6338522a4c3528a25a0d1e31dd86140caf7dab6791a0d1bd0c2291ca4efee50801697fb3f47e3d4f821a009efd47672c6c4b5c14c13c18a1160e67b21a816b2fef923287126e6f3f29fc1",
        "s": "0x9efd47672c6c4b5c14c13c18a1160e67b21a816b2fef923287126e6f3f29fc1",
        "standardV": "0x0",
        "to": "0xddddddd1fd4e3708869c00cabe6b0b9d15181bb9",
        "transactionIndex": "0x4",
        "v": "0x25",
        "value": "0x0"
      },
      {
        "blockHash": "0xa143072d105d58469b92b72bc68e32eb44136a7a914a9cfd545bb187212b9303",
        "blockNumber": "0x757ec2",
        "chainId": "0x1",
        "condition": null,
        "creates": null,
        "from": "0xefbc69b2aa0221dbd400a9ebed34654e9dfb75ae",
        "gas": "0x2dc6c0",
        "gasPrice": "0x1a7316700",
        "hash": "0x839ff3d4bb73ca22b07ae893027349f4a35033c14f17f638d3330efce07f8712",
        "input": "0xbc1c0a58000000000000000000000000000000000000000000000000000000000000004000000000000000000000000000000000000000000000000000000000000001800000000000000000000000000000000000000000000000000000000000000105032fe2fa6e5251b1b486413b45b4d32f25127232d0dc028a1dd9f40b09336f2590b7336320b3227ed6064dba498e7079c5b0ee865e19f7a6e1a0aee05eb3057c0603d7f332494608d6367246e331f2e60c30f377a4cb290144486945a5b305b014a7032fe2fa6e5251b1b486413b45b4d32f25127232d0dc028a1dd9f40b09336f25901eee97dfce48a94105d253bfc76daf727d44fdb2d5b57bf7b960f8bbc9d179cd03ad882530ee3dff83d85da8b9626f712fb13613e82f7899fccd4201b708177f31032fe2fa6e5251b1b486413b45b4d32f25127232d0dc028a1dd9f40b09336f25901e738ca96b94acd62b6c61471a03380e82de3da4fc5b200ec2ca3963c5d20e5400000000000000000000000000000000000000000000000000000000000000000000000000000000000000000000000000000000000000000000202924e0d0dd03450dde4b315595e76586f23309c85d040cddc06139e838855d64",
        "nonce": "0x6a6",
        "publicKey": "0x9a8d53c0f594dc88d9cc69722fdcc9d2de1d00d4c1e2342071de9d03831db2241d3aa3e2b9b46af97c0fe7e90e9033501d91cfe4778a2bacb459033d17b984b4",
        "r": "0x124350253a607b68cc4393ac323051fbc16cd7902dcec060a217230f4a2681b",
        "raw": "0xf9022d8206a68501a7316700832dc6c094abc2f5c89d8b2238e370759f9408fb9058c5726a80b901c4bc1c0a58000000000000000000000000000000000000000000000000000000000000004000000000000000000000000000000000000000000000000000000000000001800000000000000000000000000000000000000000000000000000000000000105032fe2fa6e5251b1b486413b45b4d32f25127232d0dc028a1dd9f40b09336f2590b7336320b3227ed6064dba498e7079c5b0ee865e19f7a6e1a0aee05eb3057c0603d7f332494608d6367246e331f2e60c30f377a4cb290144486945a5b305b014a7032fe2fa6e5251b1b486413b45b4d32f25127232d0dc028a1dd9f40b09336f25901eee97dfce48a94105d253bfc76daf727d44fdb2d5b57bf7b960f8bbc9d179cd03ad882530ee3dff83d85da8b9626f712fb13613e82f7899fccd4201b708177f31032fe2fa6e5251b1b486413b45b4d32f25127232d0dc028a1dd9f40b09336f25901e738ca96b94acd62b6c61471a03380e82de3da4fc5b200ec2ca3963c5d20e5400000000000000000000000000000000000000000000000000000000000000000000000000000000000000000000000000000000000000000000202924e0d0dd03450dde4b315595e76586f23309c85d040cddc06139e838855d6425a00124350253a607b68cc4393ac323051fbc16cd7902dcec060a217230f4a2681ba01b4796ec4bc544c1ba900a42d27c2f79bcb6134c4bc281140c8b8eb692f0b02a",
        "s": "0x1b4796ec4bc544c1ba900a42d27c2f79bcb6134c4bc281140c8b8eb692f0b02a",
        "standardV": "0x0",
        "to": "0xabc2f5c89d8b2238e370759f9408fb9058c5726a",
        "transactionIndex": "0x5",
        "v": "0x25",
        "value": "0x0"
      },
      {
        "blockHash": "0xa143072d105d58469b92b72bc68e32eb44136a7a914a9cfd545bb187212b9303",
        "blockNumber": "0x757ec2",
        "chainId": "0x1",
        "condition": null,
        "creates": null,
        "from": "0x22d74fabab5822c451d3af87a06072a3182fb117",
        "gas": "0x2dc6c0",
        "gasPrice": "0x1a7316700",
        "hash": "0xa2717fa95cd80f9a9decbde69943fde115771318e661ecb47fc8f8444aa87ce9",
        "input": "0xbc1c0a5800000000000000000000000000000000000000000000000000000000000000400000000000000000000000000000000000000000000000000000000000000180000000000000000000000000000000000000000000000000000000000000010503e94c4883dc1e292006d9264ad249d9db5305a7329db114368fd5ee637c05ad8ae8cca76f289a5d14e3724df461de40a943f74a591f3f65aeeb9a81c0d695196e02a740dbf3e58e32645d2286c33b6dcd3899a3e2e9c8a838074c02960d1429054703e94c4883dc1e292006d9264ad249d9db5305a7329db114368fd5ee637c05ad8a039c954778d774bbef4eddf3a93c86eeb7e9ba8d84f84581441692e846e4cfe703652ada58f9c98804f10a5046030d0369d9bef0ae635a83bc2431534b1e1469ca03e94c4883dc1e292006d9264ad249d9db5305a7329db114368fd5ee637c05ad8a03e0be36327acf87349b4cada1d155fc09c30f0354cd88b92d520e799a9e6aba00000000000000000000000000000000000000000000000000000000000000000000000000000000000000000000000000000000000000000000209017b8cbfbf9cdb1913321e4f74b81eaafc082455fcb724dba53dee36bad08af",
        "nonce": "0x6a8",
        "publicKey": "0x261b85b99559e994ed1d6eb901d10ad747df3c8ddd27b06af692b0ac24e9aa1d28d1ee7d6503dd7f8ab6495c1a9309fb39f740836dd1ee3d7d941a6c8b294900",
        "r": "0x3743a2b2e034923f7535a416c12815fce33893596cde2e0687123caae9b21632",
        "raw": "0xf9022d8206a88501a7316700832dc6c094abc2f5c89d8b2238e370759f9408fb9058c5726a80b901c4bc1c0a5800000000000000000000000000000000000000000000000000000000000000400000000000000000000000000000000000000000000000000000000000000180000000000000000000000000000000000000000000000000000000000000010503e94c4883dc1e292006d9264ad249d9db5305a7329db114368fd5ee637c05ad8ae8cca76f289a5d14e3724df461de40a943f74a591f3f65aeeb9a81c0d695196e02a740dbf3e58e32645d2286c33b6dcd3899a3e2e9c8a838074c02960d1429054703e94c4883dc1e292006d9264ad249d9db5305a7329db114368fd5ee637c05ad8a039c954778d774bbef4eddf3a93c86eeb7e9ba8d84f84581441692e846e4cfe703652ada58f9c98804f10a5046030d0369d9bef0ae635a83bc2431534b1e1469ca03e94c4883dc1e292006d9264ad249d9db5305a7329db114368fd5ee637c05ad8a03e0be36327acf87349b4cada1d155fc09c30f0354cd88b92d520e799a9e6aba00000000000000000000000000000000000000000000000000000000000000000000000000000000000000000000000000000000000000000000209017b8cbfbf9cdb1913321e4f74b81eaafc082455fcb724dba53dee36bad08af26a03743a2b2e034923f7535a416c12815fce33893596cde2e0687123caae9b21632a060ef60200390006834949612161cd86cad4aad8297f4832e8da1ebac6b6aa630",
        "s": "0x60ef60200390006834949612161cd86cad4aad8297f4832e8da1ebac6b6aa630",
        "standardV": "0x1",
        "to": "0xabc2f5c89d8b2238e370759f9408fb9058c5726a",
        "transactionIndex": "0x6",
        "v": "0x26",
        "value": "0x0"
      },
      {
        "blockHash": "0xa143072d105d58469b92b72bc68e32eb44136a7a914a9cfd545bb187212b9303",
        "blockNumber": "0x757ec2",
        "chainId": "0x1",
        "condition": null,
        "creates": null,
        "from": "0x642d3d8a36fda5c47e951ae171ffad5c82461d31",
        "gas": "0xc350",
        "gasPrice": "0x1a7316700",
        "hash": "0x8fa04f0ffd03f4e95f19a5ef9ec73a4d369f2fe589009287ee14f3742a8fd46f",
        "input": "0x",
        "nonce": "0x2",
        "publicKey": "0x11095875eeabf67ba2f17669d5d7be15624c7155f29eea41a15d710766bb85c55feb395179e3597a9e9340a1eaa58faefd73461af5857af8ef3395bffc4bb7df",
        "r": "0xdfb6ebf5f5e672fb2beb9b707e34daacde62cde222f5669ee761b60ad4647fcd",
        "raw": "0xf86d028501a731670082c350949427b091c7af05173f8437b6492e6af38fa61c50893b93b0553f9a4c00008026a0dfb6ebf5f5e672fb2beb9b707e34daacde62cde222f5669ee761b60ad4647fcda009165512f78486cb9889080fdb38d780ce83b4d9dbc9d73ad0ce9be00843220a",
        "s": "0x9165512f78486cb9889080fdb38d780ce83b4d9dbc9d73ad0ce9be00843220a",
        "standardV": "0x1",
        "to": "0x9427b091c7af05173f8437b6492e6af38fa61c50",
        "transactionIndex": "0x7",
        "v": "0x26",
        "value": "0x3b93b0553f9a4c0000"
      },
      {
        "blockHash": "0xa143072d105d58469b92b72bc68e32eb44136a7a914a9cfd545bb187212b9303",
        "blockNumber": "0x757ec2",
        "chainId": "0x1",
        "condition": null,
        "creates": null,
        "from": "0x4c8a2ffbab513af45510ff6c71c6507cfaffff9e",
        "gas": "0xea60",
        "gasPrice": "0x1a7316700",
        "hash": "0xffd90e8e4e90d42b7d3f5e4c7ff96db2540151950e040eaf846f3799e66a7ec4",
        "input": "0xa9059cbb000000000000000000000000befe5e5737773cba92f5a8e93bcb60c59b4f8aed000000000000000000000000000000000000000000000a968163f0a57b400000",
        "nonce": "0x3e",
        "publicKey": "0x953a4d15d32c1929d834bd71b54950196fc6ffe40928186b0988fba53558ac47ddc1f27fa0fbef0652d6ee3828174afbd7ef21f99038097bc21e2ea662cf14b1",
        "r": "0x581c1bed4fe0e282875f2e606fa9b4d847ee8ff2c61c03eeedfec28dc29222cc",
        "raw": "0xf8a93e8501a731670082ea60941ffe24629f1b3df74fc0f6e5d086f2fd09258ff280b844a9059cbb000000000000000000000000befe5e5737773cba92f5a8e93bcb60c59b4f8aed000000000000000000000000000000000000000000000a968163f0a57b40000025a0581c1bed4fe0e282875f2e606fa9b4d847ee8ff2c61c03eeedfec28dc29222cca02b20f04d6635362d834d860b603b047084e14dcd606671f6c0f524fc5dae663a",
        "s": "0x2b20f04d6635362d834d860b603b047084e14dcd606671f6c0f524fc5dae663a",
        "standardV": "0x0",
        "to": "0x1ffe24629f1b3df74fc0f6e5d086f2fd09258ff2",
        "transactionIndex": "0x8",
        "v": "0x25",
        "value": "0x0"
      },
      {
        "blockHash": "0xa143072d105d58469b92b72bc68e32eb44136a7a914a9cfd545bb187212b9303",
        "blockNumber": "0x757ec2",
        "chainId": "0x1",
        "condition": null,
        "creates": null,
        "from": "0x2bfac2b1ed50aca38e8ebe97f4b04ee68ff223c4",
        "gas": "0x6270",
        "gasPrice": "0x1a7316700",
        "hash": "0x4c8ffc96e33dca62f0290d04b3c7406c9cbf3645844bbfcb2f03c4fd3b0d07ab",
        "input": "0x",
        "nonce": "0x77",
        "publicKey": "0x1b3f08e1caf50b02ec7eb43dc8656fb4ecb5bf784e5779e0f83d194b32f6de35f51eb10bc27babaa04f3f69a6152d80f6a876d78d670e8671196f6e4feafe203",
        "r": "0xfb959720375f93321ba3eb2a45ec2b5aa1a87581f8665e934950b39a602c20e4",
        "raw": "0xf86d778501a7316700826270940536cdf7260dd6037145638aa980a1f3e9d110798902b5e3af16b18800008025a0fb959720375f93321ba3eb2a45ec2b5aa1a87581f8665e934950b39a602c20e4a032287c171b4bcc87fb78933537781af49ad1ed277034513227d260fd5ef04e49",
        "s": "0x32287c171b4bcc87fb78933537781af49ad1ed277034513227d260fd5ef04e49",
        "standardV": "0x0",
        "to": "0x0536cdf7260dd6037145638aa980a1f3e9d11079",
        "transactionIndex": "0x9",
        "v": "0x25",
        "value": "0x2b5e3af16b1880000"
      },
      {
        "blockHash": "0xa143072d105d58469b92b72bc68e32eb44136a7a914a9cfd545bb187212b9303",
        "blockNumber": "0x757ec2",
        "chainId": "0x1",
        "condition": null,
        "creates": null,
        "from": "0x90b5128af9fbb7aaea84eb492f5e4a514c871319",
        "gas": "0xea60",
        "gasPrice": "0x1a7316700",
        "hash": "0x903a45768891db80681976a351ba7590cc99595c40ef582140d8588319df4cf2",
        "input": "0xa9059cbb000000000000000000000000f869ed6eac018b7254a76d03d4fbeb496b859e6900000000000000000000000000000000000000000000000595698248593c0000",
        "nonce": "0x32",
        "publicKey": "0xbfeee79708f49c6ad5b1842c6a3771dd7af8592e7bc05776830504c2be741cd9340b8e861421222471bc3375e4f784f5f8463d119018caa35c90daeac091f6a0",
        "r": "0x22a61b8719ce4cbafd9f73a2cc15917f408af67ecff00855f7979425d95c44f2",
        "raw": "0xf8a9328501a731670082ea6094d2bd6415db70a0f0b26c973b15b63bac74f5c9c680b844a9059cbb000000000000000000000000f869ed6eac018b7254a76d03d4fbeb496b859e6900000000000000000000000000000000000000000000000595698248593c000026a022a61b8719ce4cbafd9f73a2cc15917f408af67ecff00855f7979425d95c44f2a015e2d44e614bebf556bace5a633b5c505856761c20af858dc35a7fd2319cd665",
        "s": "0x15e2d44e614bebf556bace5a633b5c505856761c20af858dc35a7fd2319cd665",
        "standardV": "0x1",
        "to": "0xd2bd6415db70a0f0b26c973b15b63bac74f5c9c6",
        "transactionIndex": "0xa",
        "v": "0x26",
        "value": "0x0"
      },
      {
        "blockHash": "0xa143072d105d58469b92b72bc68e32eb44136a7a914a9cfd545bb187212b9303",
        "blockNumber": "0x757ec2",
        "chainId": "0x1",
        "condition": null,
        "creates": null,
        "from": "0x983961f34fc4cfc5eafec371cdba9d56ff8c1935",
        "gas": "0x137ee",
        "gasPrice": "0xee6b2800",
        "hash": "0xa91fb36aa612a3cc48da2e703ff1568bec2183e21fd932726219b6eeade68488",
        "input": "0xa9059cbb00000000000000000000000019a7ecbbfceacb3d67fc69293baf42b2ec83b7cb0000000000000000000000000000000000000000000000022b1c8c1227a00000",
        "nonce": "0x1104",
        "publicKey": "0xca2ee5f3614cfa483336fd28749c9d8cb5fa56e07ecb2c8801db1f8559b70c63dee2034cc238e28bd93957664495eb77b814bc5ecaaee6502bc92c5fdab52d67",
        "r": "0x837ee0984b2d5ee042a8a1709148849ee8666acbc1c32bb9f3bb143b9c142f8b",
        "raw": "0xf8ab82110484ee6b2800830137ee94af3b6cf6b25740af51cfebcaad5bae2ca12856f080b844a9059cbb00000000000000000000000019a7ecbbfceacb3d67fc69293baf42b2ec83b7cb0000000000000000000000000000000000000000000000022b1c8c1227a0000026a0837ee0984b2d5ee042a8a1709148849ee8666acbc1c32bb9f3bb143b9c142f8ba0423abc6d882a346221d8593fdbffc1ca5ad9881fbc37d710abb46414793df03d",
        "s": "0x423abc6d882a346221d8593fdbffc1ca5ad9881fbc37d710abb46414793df03d",
        "standardV": "0x1",
        "to": "0xaf3b6cf6b25740af51cfebcaad5bae2ca12856f0",
        "transactionIndex": "0xb",
        "v": "0x26",
        "value": "0x0"
      },
      {
        "blockHash": "0xa143072d105d58469b92b72bc68e32eb44136a7a914a9cfd545bb187212b9303",
        "blockNumber": "0x757ec2",
        "chainId": "0x1",
        "condition": null,
        "creates": null,
        "from": "0x2f145aa0a439fa15e02415e035aaf9fdbdecabd5",
        "gas": "0x1dc4d",
        "gasPrice": "0xb2d05e00",
        "hash": "0xd0c630295999a0bbfeb79f3c89d5a9992f175df44a43e9cc4713fc17a66a584c",
        "input": "0x4591b7c6000000000000000000000000dc827558062aa1cc0e2ab28146da9eeac38a06d1",
        "nonce": "0x9e5",
        "publicKey": "0x087efc4412e6d661545f0d21cbe92de9cfde769f6de7ef008ab0da2a36dd13bc09787fc59211a32b012fd86ca53bf2f9f7daf5eae132382f161f5d4d4c9bbb88",
        "r": "0xc9d86d91ff9aa0072b637cc76971d4783aa4ba4d904a7a0e96612e4651510332",
        "raw": "0xf8898209e584b2d05e008301dc4d94d5d10172e8d8b84ac83031c16fe093cba4c84fc680a44591b7c6000000000000000000000000dc827558062aa1cc0e2ab28146da9eeac38a06d125a0c9d86d91ff9aa0072b637cc76971d4783aa4ba4d904a7a0e96612e46515103329feb06e16083ba012dd2caa5a5429f14c547b335f53aa4c417977816f96e23f5",
        "s": "0xeb06e16083ba012dd2caa5a5429f14c547b335f53aa4c417977816f96e23f5",
        "standardV": "0x0",
        "to": "0xd5d10172e8d8b84ac83031c16fe093cba4c84fc6",
        "transactionIndex": "0xc",
        "v": "0x25",
        "value": "0x0"
      },
      {
        "blockHash": "0xa143072d105d58469b92b72bc68e32eb44136a7a914a9cfd545bb187212b9303",
        "blockNumber": "0x757ec2",
        "chainId": null,
        "condition": null,
        "creates": "0xc7777441287b6ff73e7cb824b491b98fd5600550",
        "from": "0xe6334a896a5a983c97e9c454da61e8d238eaf457",
        "gas": "0x51056",
        "gasPrice": "0xb2d05e00",
        "hash": "0x40fd4619fd01caa18a62b30b06525caff15d443982dec6994ee2ac6cc2094543",
        "input": "0x608060405234801561001057600080fd5b5060008054600160a060020a03199081167350d569af6610c017dde11a7f66df3fe831f989fa1790915560018054909116737bb6891480a062083c11a6fefff671751a4dbd1c17905561037b806100686000396000f3006080604052600436106100565763ffffffff7c0100000000000000000000000000000000000000000000000000000000600035041663578e9dc58114610127578063ce7be2d614610158578063dde9c2971461017e575b60008054604051600a34600981028290049491900492600160a060020a0316916108fc85150291859190818181858888f1935050505015801561009d573d6000803e3d6000fd5b50600154604051600160a060020a039091169082156108fc029083906000818181858888f193505050501580156100d8573d6000803e3d6000fd5b5060005460408051338152600160a060020a0390921660208301523482820152517fed0d2b85ecda74217b5111c81438d31a43b8b4e2c061bfd34d5a1b2d3aab988f9181900360600190a15050005b34801561013357600080fd5b5061013c610193565b60408051600160a060020a039092168252519081900360200190f35b34801561016457600080fd5b5061017c600160a060020a03600435166024356101a2565b005b34801561018a57600080fd5b5061013c610340565b600054600160a060020a031681565b60008054604080517fa9059cbb000000000000000000000000000000000000000000000000000000008152600160a060020a039283166004820152600a6009860281900460248301819052925192949086049387169263a9059cbb926044808201936020939283900390910190829087803b15801561022057600080fd5b505af1158015610234573d6000803e3d6000fd5b505050506040513d602081101561024a57600080fd5b5050600154604080517fa9059cbb000000000000000000000000000000000000000000000000000000008152600160a060020a0392831660048201526024810184905290519186169163a9059cbb916044808201926020929091908290030181600087803b1580156102bb57600080fd5b505af11580156102cf573d6000803e3d6000fd5b505050506040513d60208110156102e557600080fd5b505060005460408051338152600160a060020a0392831660208201529186168282015260608201859052517fa4a78035a9350286d6a0665d9bd4e141f41f3513d3fcdbcef369cef00bf0fb919181900360800190a150505050565b600154600160a060020a0316815600a165627a7a7230582058f28ca17a7bf4592858243137425e5857cc106bf1739267c7f195a0ad1aa4a90029",
        "nonce": "0x551",
        "publicKey": "0xa02778125efbd7ac1649b217ee77f99c8ae8d8733cba0341964d3e35b2ab7b251bf5b04f2582b3459e9b2e6f200c814082e49ecdfcfdb6c3f426319ad282cc33",
        "r": "0x9b1212cdd38057e4c10594d5083fba12652c630a5184d7d30e5a16be0482a92b",
        "raw": "0xf9043782055184b2d05e00830510568080b903e3608060405234801561001057600080fd5b5060008054600160a060020a03199081167350d569af6610c017dde11a7f66df3fe831f989fa1790915560018054909116737bb6891480a062083c11a6fefff671751a4dbd1c17905561037b806100686000396000f3006080604052600436106100565763ffffffff7c0100000000000000000000000000000000000000000000000000000000600035041663578e9dc58114610127578063ce7be2d614610158578063dde9c2971461017e575b60008054604051600a34600981028290049491900492600160a060020a0316916108fc85150291859190818181858888f1935050505015801561009d573d6000803e3d6000fd5b50600154604051600160a060020a039091169082156108fc029083906000818181858888f193505050501580156100d8573d6000803e3d6000fd5b5060005460408051338152600160a060020a0390921660208301523482820152517fed0d2b85ecda74217b5111c81438d31a43b8b4e2c061bfd34d5a1b2d3aab988f9181900360600190a15050005b34801561013357600080fd5b5061013c610193565b60408051600160a060020a039092168252519081900360200190f35b34801561016457600080fd5b5061017c600160a060020a03600435166024356101a2565b005b34801561018a57600080fd5b5061013c610340565b600054600160a060020a031681565b60008054604080517fa9059cbb000000000000000000000000000000000000000000000000000000008152600160a060020a039283166004820152600a6009860281900460248301819052925192949086049387169263a9059cbb926044808201936020939283900390910190829087803b15801561022057600080fd5b505af1158015610234573d6000803e3d6000fd5b505050506040513d602081101561024a57600080fd5b5050600154604080517fa9059cbb000000000000000000000000000000000000000000000000000000008152600160a060020a0392831660048201526024810184905290519186169163a9059cbb916044808201926020929091908290030181600087803b1580156102bb57600080fd5b505af11580156102cf573d6000803e3d6000fd5b505050506040513d60208110156102e557600080fd5b505060005460408051338152600160a060020a0392831660208201529186168282015260608201859052517fa4a78035a9350286d6a0665d9bd4e141f41f3513d3fcdbcef369cef00bf0fb919181900360800190a150505050565b600154600160a060020a0316815600a165627a7a7230582058f28ca17a7bf4592858243137425e5857cc106bf1739267c7f195a0ad1aa4a900291ba09b1212cdd38057e4c10594d5083fba12652c630a5184d7d30e5a16be0482a92ba00ebd7d0319ade36f1d4251d138eae327ad635de3541d1dc28226797699b960b9",
        "s": "0xebd7d0319ade36f1d4251d138eae327ad635de3541d1dc28226797699b960b9",
        "standardV": "0x0",
        "to": null,
        "transactionIndex": "0xd",
        "v": "0x1b",
        "value": "0x0"
      },
      {
        "blockHash": "0xa143072d105d58469b92b72bc68e32eb44136a7a914a9cfd545bb187212b9303",
        "blockNumber": "0x757ec2",
        "chainId": null,
        "condition": null,
        "creates": "0x0861fa2ceefe654cdc96b8cf193eb1168fe4f2ec",
        "from": "0x626524dfbbf7acc758c0d5ddb9f609457b068949",
        "gas": "0x51056",
        "gasPrice": "0xb2d05e00",
        "hash": "0x3aa8e7fb36ce8f304b1ee8b3cfaea1440733ee0c003a038e5a14d311d61dd2bd",
        "input": "0x608060405234801561001057600080fd5b5060008054600160a060020a03199081167350d569af6610c017dde11a7f66df3fe831f989fa1790915560018054909116737bb6891480a062083c11a6fefff671751a4dbd1c17905561037b806100686000396000f3006080604052600436106100565763ffffffff7c0100000000000000000000000000000000000000000000000000000000600035041663578e9dc58114610127578063ce7be2d614610158578063dde9c2971461017e575b60008054604051600a34600981028290049491900492600160a060020a0316916108fc85150291859190818181858888f1935050505015801561009d573d6000803e3d6000fd5b50600154604051600160a060020a039091169082156108fc029083906000818181858888f193505050501580156100d8573d6000803e3d6000fd5b5060005460408051338152600160a060020a0390921660208301523482820152517fed0d2b85ecda74217b5111c81438d31a43b8b4e2c061bfd34d5a1b2d3aab988f9181900360600190a15050005b34801561013357600080fd5b5061013c610193565b60408051600160a060020a039092168252519081900360200190f35b34801561016457600080fd5b5061017c600160a060020a03600435166024356101a2565b005b34801561018a57600080fd5b5061013c610340565b600054600160a060020a031681565b60008054604080517fa9059cbb000000000000000000000000000000000000000000000000000000008152600160a060020a039283166004820152600a6009860281900460248301819052925192949086049387169263a9059cbb926044808201936020939283900390910190829087803b15801561022057600080fd5b505af1158015610234573d6000803e3d6000fd5b505050506040513d602081101561024a57600080fd5b5050600154604080517fa9059cbb000000000000000000000000000000000000000000000000000000008152600160a060020a0392831660048201526024810184905290519186169163a9059cbb916044808201926020929091908290030181600087803b1580156102bb57600080fd5b505af11580156102cf573d6000803e3d6000fd5b505050506040513d60208110156102e557600080fd5b505060005460408051338152600160a060020a0392831660208201529186168282015260608201859052517fa4a78035a9350286d6a0665d9bd4e141f41f3513d3fcdbcef369cef00bf0fb919181900360800190a150505050565b600154600160a060020a0316815600a165627a7a7230582058f28ca17a7bf4592858243137425e5857cc106bf1739267c7f195a0ad1aa4a90029",
        "nonce": "0x659",
        "publicKey": "0x434a3f83f8fa28f3fb20665fae37059e03473972c90ff3ca5c8ddf7f5580ce6cca179dadd888a6a8ef4c2a7fd44fa96dbd036f12959dbc2082141a35a1563f7c",
        "r": "0x60a8c58ce41ff8d95ea37e02cde96b8e4725201b412cf51c1f347b31fb8209a1",
        "raw": "0xf9043782065984b2d05e00830510568080b903e3608060405234801561001057600080fd5b5060008054600160a060020a03199081167350d569af6610c017dde11a7f66df3fe831f989fa1790915560018054909116737bb6891480a062083c11a6fefff671751a4dbd1c17905561037b806100686000396000f3006080604052600436106100565763ffffffff7c0100000000000000000000000000000000000000000000000000000000600035041663578e9dc58114610127578063ce7be2d614610158578063dde9c2971461017e575b60008054604051600a34600981028290049491900492600160a060020a0316916108fc85150291859190818181858888f1935050505015801561009d573d6000803e3d6000fd5b50600154604051600160a060020a039091169082156108fc029083906000818181858888f193505050501580156100d8573d6000803e3d6000fd5b5060005460408051338152600160a060020a0390921660208301523482820152517fed0d2b85ecda74217b5111c81438d31a43b8b4e2c061bfd34d5a1b2d3aab988f9181900360600190a15050005b34801561013357600080fd5b5061013c610193565b60408051600160a060020a039092168252519081900360200190f35b34801561016457600080fd5b5061017c600160a060020a03600435166024356101a2565b005b34801561018a57600080fd5b5061013c610340565b600054600160a060020a031681565b60008054604080517fa9059cbb000000000000000000000000000000000000000000000000000000008152600160a060020a039283166004820152600a6009860281900460248301819052925192949086049387169263a9059cbb926044808201936020939283900390910190829087803b15801561022057600080fd5b505af1158015610234573d6000803e3d6000fd5b505050506040513d602081101561024a57600080fd5b5050600154604080517fa9059cbb000000000000000000000000000000000000000000000000000000008152600160a060020a0392831660048201526024810184905290519186169163a9059cbb916044808201926020929091908290030181600087803b1580156102bb57600080fd5b505af11580156102cf573d6000803e3d6000fd5b505050506040513d60208110156102e557600080fd5b505060005460408051338152600160a060020a0392831660208201529186168282015260608201859052517fa4a78035a9350286d6a0665d9bd4e141f41f3513d3fcdbcef369cef00bf0fb919181900360800190a150505050565b600154600160a060020a0316815600a165627a7a7230582058f28ca17a7bf4592858243137425e5857cc106bf1739267c7f195a0ad1aa4a900291ba060a8c58ce41ff8d95ea37e02cde96b8e4725201b412cf51c1f347b31fb8209a1a012301c0a13340c73de4a571f32d1e569c92105c4058fadc8e8a8eb8751bd26fc",
        "s": "0x12301c0a13340c73de4a571f32d1e569c92105c4058fadc8e8a8eb8751bd26fc",
        "standardV": "0x0",
        "to": null,
        "transactionIndex": "0xe",
        "v": "0x1b",
        "value": "0x0"
      },
      {
        "blockHash": "0xa143072d105d58469b92b72bc68e32eb44136a7a914a9cfd545bb187212b9303",
        "blockNumber": "0x757ec2",
        "chainId": null,
        "condition": null,
        "creates": null,
        "from": "0xc8dfcec53ab1102a38e8f96be8eba37fc5340c99",
        "gas": "0xe0ee",
        "gasPrice": "0xb2d05e00",
        "hash": "0x250f7f4760d3cbe533b9bfde72f89460e61c3a4b83a6422ea65b573e56fe954f",
        "input": "0xa9059cbb000000000000000000000000eab4ed6b464aff23cedefed57051f44142225c8700000000000000000000000000000000000000000000006194049f30f7200000",
        "nonce": "0x23d8",
        "publicKey": "0x8fde67f19b5d019c20d8f1eb6ba91e7ce7fbc759676211a52cfa21210cf561ba055776d6eccd8f7b1d527f2ae9f5d29e97f1fe18ae8f6c62e63a2eed68ddcc92",
        "r": "0xd4ab3b12ad8a3cc21589b0bcc2ca2c07ea21350f98955850927d5b14dca24bd",
        "raw": "0xf8aa8223d884b2d05e0082e0ee94686b30a80826340a59afa564c2a01b79128eb7dd80b844a9059cbb000000000000000000000000eab4ed6b464aff23cedefed57051f44142225c8700000000000000000000000000000000000000000000006194049f30f72000001ca00d4ab3b12ad8a3cc21589b0bcc2ca2c07ea21350f98955850927d5b14dca24bda013ad7bf6ae2939c8a058ce4a864b0866084128a986b4ce6e700fc9307109b1d8",
        "s": "0x13ad7bf6ae2939c8a058ce4a864b0866084128a986b4ce6e700fc9307109b1d8",
        "standardV": "0x1",
        "to": "0x686b30a80826340a59afa564c2a01b79128eb7dd",
        "transactionIndex": "0xf",
        "v": "0x1c",
        "value": "0x0"
      },
      {
        "blockHash": "0xa143072d105d58469b92b72bc68e32eb44136a7a914a9cfd545bb187212b9303",
        "blockNumber": "0x757ec2",
        "chainId": null,
        "condition": null,
        "creates": "0xb1832d4a6bc7a315ae6ad54598fb10ffa7f822ed",
        "from": "0x2aa3032c58c211671c4ad21fe235e19115b8d8d2",
        "gas": "0x51056",
        "gasPrice": "0xb2d05e00",
        "hash": "0x7cba36982c7786baa4f107921a1e0213f2e80c07afa2a1ab31cb9d2f13f2360b",
        "input": "0x608060405234801561001057600080fd5b5060008054600160a060020a03199081167350d569af6610c017dde11a7f66df3fe831f989fa1790915560018054909116737bb6891480a062083c11a6fefff671751a4dbd1c17905561037b806100686000396000f3006080604052600436106100565763ffffffff7c0100000000000000000000000000000000000000000000000000000000600035041663578e9dc58114610127578063ce7be2d614610158578063dde9c2971461017e575b60008054604051600a34600981028290049491900492600160a060020a0316916108fc85150291859190818181858888f1935050505015801561009d573d6000803e3d6000fd5b50600154604051600160a060020a039091169082156108fc029083906000818181858888f193505050501580156100d8573d6000803e3d6000fd5b5060005460408051338152600160a060020a0390921660208301523482820152517fed0d2b85ecda74217b5111c81438d31a43b8b4e2c061bfd34d5a1b2d3aab988f9181900360600190a15050005b34801561013357600080fd5b5061013c610193565b60408051600160a060020a039092168252519081900360200190f35b34801561016457600080fd5b5061017c600160a060020a03600435166024356101a2565b005b34801561018a57600080fd5b5061013c610340565b600054600160a060020a031681565b60008054604080517fa9059cbb000000000000000000000000000000000000000000000000000000008152600160a060020a039283166004820152600a6009860281900460248301819052925192949086049387169263a9059cbb926044808201936020939283900390910190829087803b15801561022057600080fd5b505af1158015610234573d6000803e3d6000fd5b505050506040513d602081101561024a57600080fd5b5050600154604080517fa9059cbb000000000000000000000000000000000000000000000000000000008152600160a060020a0392831660048201526024810184905290519186169163a9059cbb916044808201926020929091908290030181600087803b1580156102bb57600080fd5b505af11580156102cf573d6000803e3d6000fd5b505050506040513d60208110156102e557600080fd5b505060005460408051338152600160a060020a0392831660208201529186168282015260608201859052517fa4a78035a9350286d6a0665d9bd4e141f41f3513d3fcdbcef369cef00bf0fb919181900360800190a150505050565b600154600160a060020a0316815600a165627a7a7230582058f28ca17a7bf4592858243137425e5857cc106bf1739267c7f195a0ad1aa4a90029",
        "nonce": "0x275",
        "publicKey": "0x342301fbe979fa823c37220d200788244579617da1e5ce067258315661ce0695a34f8e0cd9fe380880caa8fa7994966690cc6b77562781bf17452716d741d4ae",
        "r": "0x8d70a96f7c4b0d0440ec0ce92ee2f75db4418891de9f0432d64bdb2ee28b1bc0",
        "raw": "0xf9043782027584b2d05e00830510568080b903e3608060405234801561001057600080fd5b5060008054600160a060020a03199081167350d569af6610c017dde11a7f66df3fe831f989fa1790915560018054909116737bb6891480a062083c11a6fefff671751a4dbd1c17905561037b806100686000396000f3006080604052600436106100565763ffffffff7c0100000000000000000000000000000000000000000000000000000000600035041663578e9dc58114610127578063ce7be2d614610158578063dde9c2971461017e575b60008054604051600a34600981028290049491900492600160a060020a0316916108fc85150291859190818181858888f1935050505015801561009d573d6000803e3d6000fd5b50600154604051600160a060020a039091169082156108fc029083906000818181858888f193505050501580156100d8573d6000803e3d6000fd5b5060005460408051338152600160a060020a0390921660208301523482820152517fed0d2b85ecda74217b5111c81438d31a43b8b4e2c061bfd34d5a1b2d3aab988f9181900360600190a15050005b34801561013357600080fd5b5061013c610193565b60408051600160a060020a039092168252519081900360200190f35b34801561016457600080fd5b5061017c600160a060020a03600435166024356101a2565b005b34801561018a57600080fd5b5061013c610340565b600054600160a060020a031681565b60008054604080517fa9059cbb000000000000000000000000000000000000000000000000000000008152600160a060020a039283166004820152600a6009860281900460248301819052925192949086049387169263a9059cbb926044808201936020939283900390910190829087803b15801561022057600080fd5b505af1158015610234573d6000803e3d6000fd5b505050506040513d602081101561024a57600080fd5b5050600154604080517fa9059cbb000000000000000000000000000000000000000000000000000000008152600160a060020a0392831660048201526024810184905290519186169163a9059cbb916044808201926020929091908290030181600087803b1580156102bb57600080fd5b505af11580156102cf573d6000803e3d6000fd5b505050506040513d60208110156102e557600080fd5b505060005460408051338152600160a060020a0392831660208201529186168282015260608201859052517fa4a78035a9350286d6a0665d9bd4e141f41f3513d3fcdbcef369cef00bf0fb919181900360800190a150505050565b600154600160a060020a0316815600a165627a7a7230582058f28ca17a7bf4592858243137425e5857cc106bf1739267c7f195a0ad1aa4a900291ca08d70a96f7c4b0d0440ec0ce92ee2f75db4418891de9f0432d64bdb2ee28b1bc0a010e6d96f7fd5d60abbb31bc5aee5576f6d22532bfda93153d78554bd65af0bed",
        "s": "0x10e6d96f7fd5d60abbb31bc5aee5576f6d22532bfda93153d78554bd65af0bed",
        "standardV": "0x1",
        "to": null,
        "transactionIndex": "0x10",
        "v": "0x1c",
        "value": "0x0"
      }
    ],
    "transactionsRoot": "0xfaf47790f65410e0535c40ae05d4d569d0240609e3891478adbd3a1192e37782",
    "uncles": [
      "0x99f0a477b1d8e618ecb4d8ba523fac8cb4de96b630421c3043304392d3c8183a"
    ]
  },
  "id": 1
}
